:100000000C943E040C945F040C945F040C945F0405
:100010000C945F040C945F040C945F040C945F04D4
:100020000C945F040C945F040C945F040C945F04C4
:100030000C945F040C945F040C945F040C945F04B4
:100040000C945F040C94660A0C945F040C945F0497
:100050000C945F040C945F040C945F040C945F0494
:100060000C94AB080C94070E0C94D70D0C945F0401
:100070000C945F040C945F040C945F040C945F0474
:100080000C945F040C945F040C945F040C945F0464
:100090000C948F0D0C945F0D0C945F040C945F0412
:1000A0000C945F040C945F040C945F040C945F0444
:1000B0000C945F040C945F040C945F040C945F0434
:1000C0000C945F040C945F040C945F040C945F0424
:1000D0000C945F040C945F040C945F040C945F0414
:1000E0000C945F040C94280A0C94BA0A0C94110521
:1000F0000C9429050C94A3060C948E040C943B07D5
:100100000C94EB070C94A3070C9448050C94F10491
:100110000C94E904285F5F5F5F5F5F282F00202F4A
:100120005F5F5F5F5F5F2F2F0020202F2020202048
:1001300020202F2F002020202F2020202020202FA3
:100140002C00202020205F5F5F5F5F5F5F004465C1
:1001500063656D626572004E6F76656D62657200F3
:100160004F63746F6265720053657074656D62658C
:100170007200417567757374004A756C79004A7531
:100180006E65004D617900417072696C004D61725D
:100190006368004665627275617279004A616E75C6
:1001A000617279005072696E74206D656D6F72793D
:1001B00020757361676520616E64206368616E6796
:1001C0006520636F6D706172656420746F2070725A
:1001D0006576696F75732063616C6C006D656D0089
:1001E00044656C65746520636172642066726F6D2E
:1001F000206C6973743A2064656C657465203C55A5
:1002000049443E0064656C6574650053686F7720EF
:100210006C697374206F66206361726473006C692B
:1002200073740041646420636172647320746F208E
:100230006C6973743A20616464203C5549443E20E3
:100240003C4E616D653E00616464005265616420EE
:100250006361726400726561640046696E64206D5A
:1002600061746368696E67206D6F6E746820667272
:100270006F6D206C6F6F6B7570206C6973742E20BE
:1002800055736167653A206D6F6E7468203C7374B6
:1002900072696E673E006D6F6E7468005072696EB1
:1002A000742062616E6E65720062616E6E657200CE
:1002B0005072696E7473206F757420616C6C20705D
:1002C000726F7669646564203320617267756D654D
:1002D0006E74732055736167653A206578616D703F
:1002E0006C65203C617267756D656E743E203C6183
:1002F0007267756D656E743E203C617267756D65E1
:100300006E743E006578616D706C65005072696E48
:10031000742046572076657273696F6E0076657239
:1003200073696F6E004765742068656C700068655E
:100330006C70000D0A00436F6D6D616E6420686122
:100340006420666F6C6C6F77696E67206172677589
:100350006D656E74733A0D0A000D0A000D0A0042B5
:1003600001350129011E0114010D0A000D0A009C2E
:100370000193018D01870183017E0179017201687A
:1003800001600157014E010D0A000D0A5549442034
:1003900073697A653A20000D0A43617264205549F9
:1003A000443A200043617264207479706520697357
:1003B0003A2000436172642073656C656374656400
:1003C0002E0D0A00556E61626C6509746F097365C4
:1003D0006C65637409636172642E0D0A000D0A0076
:1003E0000D0A4E616D653A20000D0A55494420738F
:1003F000697A653A20005549443A20005375636391
:1004000065737366756C6C792061646465642063E0
:100410006172642120286E657874290D0A00537575
:10042000636365737366756C6C792061646465647D
:100430002063617264212028686561646572290DFA
:100440000A004572726F723A204661696C656420D9
:10045000746F20616C6C6F63617465206D656D6F86
:100460007279004572726F723A204661696C6564F8
:1004700020746F20616C6C6F63617465206D656DB5
:100480006F7279004572726F723A204F7574206FE7
:1004900066206D656D6F7279210D0A004572726F6D
:1004A000723A205468697320636172642069732012
:1004B000616C726561647920696E2074686520736F
:1004C000797374656D210D0A004572726F723A205E
:1004D0005549442073697A6520697320746F6F20D1
:1004E000626967210D0A000D0A000D0A4E616D65F3
:1004F0003A20000D0A5549442073697A653A200074
:100500000D0A5549443A20004E756D6265723A20D5
:10051000004572726F723A204C69737420697320BF
:10052000656D7074790D0A004572726F723A204CD5
:1005300069737420697320656D7074790D0A0045C4
:1005400072726F723A20546869732063617264201A
:10055000646F65736E2774206578697374210D0A62
:100560000043617264207761732072656D6F7665F8
:1005700064207375636365737366756C6C79210DA4
:100580000A0043617264207761732072656D6F7633
:100590006564207375636365737366756C6C79212C
:1005A0000D0A004C61726765737420616C6C6F6337
:1005B00061626C6520626C6F636B3A202020257548
:1005C0000D0A004C61726765737420667265656C14
:1005D00069737420626C6F636B3A2020202025754C
:1005E0000D0A004C61726765737420626C6F636BF7
:1005F00020696E20667265656C6973743A20257592
:100600000D0A00426C6F636B7320696E2066726521
:10061000656C6973743A20202020202020202575E5
:100620000D0A00467265656C6973742073697A659A
:100630003A20202020202020202020202020257546
:100640000D0A000D0A467265656C6973740D0A0027
:1006500043757272656E74202025640D0A507265B0
:1006600076696F75732025640D0A4368616E67654E
:1006700020202025640D0A000D0A53706163652057
:100680006265747765656E20737461636B20616E5B
:100690006420686561703A0D0A00557365643A20FC
:1006A00025750D0A467265653A2025750D0A0048C4
:1006B00065617020737461746973746963730D0A82
:1006C000000D0A00203A2000496D706C656D656E62
:1006D00074656420636F6D6D616E64733A0D0A001A
:1006E0006176722D6C6962632076657273696F6ED4
:1006F0003A20322E302E306176722D676363207679
:10070000657273696F6E3A20352E342E300D0A00F3
:1007100056657273696F6E3A206C6162352D302DAB
:100720006735363130383538342D64697274792044
:100730006275696C74206F6E3A204A616E202036B3
:1007400020323031392031333A32373A31390D0ADB
:10075000000D0A00436F6D6D616E64206E6F742032
:10076000696D706C656D656E7465642E205573657A
:10077000203C68656C703E20746F2067657420684B
:10078000656C702E000D0A000D0A00546F6F206614
:100790006577206F7220746F206D616E79206172B1
:1007A00067756D656E747320666F72207468697307
:1007B00020636F6D6D616E6420557365203C6865C4
:1007C0006C703E000D0A006176722D6C69626320C8
:1007D00076657273696F6E3A20322E302E306176F4
:1007E000722D6763632076657273696F6E3A203588
:1007F0002E342E300D0A0056657273696F6E3A20E2
:100800006C6162352D302D673536313038353834EE
:100810002D6469727479206275696C74206F6E3A08
:10082000204A616E20203620323031392031333A6F
:1008300032373A31390D0A0053616E6465722052C5
:1008400061746173736570700020732E0D0A00551A
:100850007074696D653A2000446F6F72206973206F
:10086000436C6F736564004572726F723A20556E07
:100870006B6E6F776E2075736572000011241FBE5A
:10088000CFEFD1E2DEBFCDBF00E00CBF13E0A0E0B0
:10089000B2E0ECE2F1E300E00BBF02C007900D9282
:1008A000AC36B107D9F725E0ACE6B3E001C01D9244
:1008B000AF3FB207E1F70E94ED0F0C9494180C942F
:1008C0000000E2E0F1E08081806480830895E2E04E
:1008D000F1E080818F7B8083089580910002909168
:1008E0000102009719F0029769F0089591B188E02C
:1008F000892781B9119A81E090E090930102809359
:100900000002089583E090E090930102809300023A
:10091000119891B188E0892781B90895AF92BF926B
:10092000CF92DF92EF92FF920F931F93CF93DF93BB
:100930007C016B01FB01A080B18008E012E0C0E007
:10094000D0E0F80160817181C5010E94B614892B45
:1009500009F5F1E0EF1AF10887E08C9FF0018D9F17
:10096000F00D1124E85FFD4F868190E0E816F9064E
:1009700059F085E897E00E94C80D84E597E00E9451
:10098000C80D81E597E016C00480F581E02DC60111
:10099000199512C02196095F1F4FCA30D10589F6FB
:1009A00084EC97E00E94C80D8BE897E00E94C80D88
:1009B00088E897E00E94C80D80E090E0DF91CF9139
:1009C0001F910F91FF90EF90DF90CF90BF90AF906D
:1009D000089580E197E00E94C80D80EE96E00C94A7
:1009E000C80DCF93DF9388EC96E00E94C80DC8E055
:1009F000D2E0888199810E94C80D84EC96E00E9423
:100A0000C80D8A819B810E94C80D81EC96E00E94EE
:100A1000C80D279682E0CE34D80759F7DF91CF91E1
:100A20000895CF93DF93CFE5D3E0FE0185919491B4
:100A30000E94C80D8CE593E00E94C80D229683E0C9
:100A4000C936D80791F789E593E0DF91CF910C94EF
:100A5000C80D0F931F93CF93DF93EC0186E393E0D0
:100A60000E94C80D8E010E5F1F4F2896F8018191DC
:100A700091918F010E94BA0A83E393E00E94C80D0E
:100A80000C171D0799F7DF91CF911F910F910895D2
:100A9000CF92DF92EF92FF920F931F93CF93DF934A
:100AA000CDB7DEB7C250D1400FB6F894DEBF0FBE4F
:100AB000CDBF8E010F5F1F4F80E091E0F8019C01D8
:100AC000119221503040E1F76E0131E0C30ED31E88
:100AD0008091F7059091F805009711F48FEF95E05C
:100AE000C81AD90A8FEA96E00E94C80D2DB73EB702
:100AF0008091060290910702281B390B8091040215
:100B0000909105027901E81AF90A0E94120D9701E5
:100B1000281B390B3F932F939F938F938AE996E07D
:100B20009F938F931F930F930E949B15C8010E9460
:100B3000BA0A88E796E00E94C80D8091DD03909183
:100B4000DE039601281B390B3F932F939F938F93BE
:100B5000DF92CF9280E596E09F938F931F930F9340
:100B60000E949B15C8010E94BA0A83E496E00E9485
:100B7000C80DE091F905F091FA050FB6F894DEBFC3
:100B80000FBECDBF80E090E0309751F00280F3813E
:100B9000E02D208131812E5F3F4F820F931FF4CFD4
:100BA0009F938F9383E296E09F938F931F930F936E
:100BB0000E949B15C8010E94BA0AE091F905F091C4
:100BC000FA050F900F900F900F900F900F9080E00C
:100BD00090E0309729F00280F381E02D0196F9CF63
:100BE0009F938F9383E096E09F938F931F930F9330
:100BF0000E949B15C8010E94BA0AE091F905F09184
:100C0000FA050F900F900F900F900F900F9080E0CB
:100C100090E0309751F0208131818217930708F4DA
:100C2000C9010280F381E02DF4CF9F938F9383EE6F
:100C300095E09F938F931F930F930E949B15C8017C
:100C40000E94BA0AE091F905F091FA050F900F9011
:100C50000F900F900F900F90E12CF12C309751F0E6
:100C600080819181E816F90608F47C010280F38105
:100C7000E02DF4CF0E94F00C8E159F0508F4C701FB
:100C80009F938F9383EC95E09F938F931F930F9384
:100C90000E949B15C8010E94BA0A0E94F00C9F9303
:100CA0008F9383EA95E09F938F931F930F930E94F6
:100CB0009B15C8010E94BA0AD092DE03C092DD03E0
:100CC0000FB6F894DEBF0FBECDBFCE5FDE4F0FB6BE
:100CD000F894DEBF0FBECDBFDF91CF911F910F9172
:100CE000FF90EF90DF90CF9008950F931F93CF93D5
:100CF000DF938C01EB01CB01880F991F01960E94B5
:100D00009513D801C00FD11FFC01AC17BD0731F4FA
:100D10001082DF91CF911F910F9108951097C1F329
:100D20002D91322F32953F703A3010F4305D01C072
:100D3000395C30832F702A3014F4205D01C0295CA7
:100D400021833296E2CFEF92FF920F931F93CF93BE
:100D5000DF93CDB7DEB7A0970FB6F894DEBF0FBE16
:100D6000CDBF0E94A20F882309F467C083EB93E0F4
:100D70000E94C80DCE0101960E94BE0B698170E0F1
:100D8000CE0102960E9475068C0161E070E0CE01F2
:100D900001960E9475067C0184EA93E00E94C80DCA
:100DA0008C8582FD1BC08930E1F050F4813009F45C
:100DB00052C008F44AC0883051F481EB92E019C067
:100DC000803128F0823108F443C08831D9F185FDA3
:100DD0000BC086FD0CC087E293E00BC084E093E07B
:100DE00008C08AE992E005C08EE492E002C082E782
:100DF00092E00E94BA0A87E993E00E94C80DC801F8
:100E00000E94BA0A8AE893E00E94C80DC7010E94B6
:100E1000BA0A87E893E00E94C80DC8010E942D1409
:100E2000C7010E942D14AE01435F5F4FBE01695E92
:100E30007F4F82E50E945D0F11C084EC93E00E9419
:100E4000C80D0CC08CEB92E0D4CF87EC92E0D1CFF0
:100E500089EE92E0CECF85EF92E0CBCFA0960FB691
:100E6000F894DEBF0FBECDBFDF91CF911F910F91E0
:100E7000FF90EF900895EF92FF920F931F93CF93FF
:100E8000DF930091E3031091E4030115110509F4C8
:100E900050C07C01FC01828193810E94FF14019665
:100EA0000E949513EC01F701628173810E94F8148E
:100EB000BE01F801808191810E94EF14892B99F481
:100EC0008091E3039091E403FC01068117810E9465
:100ED0002D14CE010E942D141093E4030093E3031C
:100EE00082E895E028C07801BE01F70180819181F8
:100EF0000E94EF14F70126813781892B71F4F801E4
:100F000037832683F701848195810E942D14CE01B9
:100F10000E942D1481E695E00EC087012115310550
:100F200011F07901E1CFCE010E942D148FE395E0FD
:100F300002C088E295E0DF91CF911F910F91FF9061
:100F4000EF900C94C80D0F931F93CF93DF93C09134
:100F5000E303D091E403209741F481E195E0DF9130
:100F6000CF911F910F910C94C80D01E010E088E023
:100F700095E00E94C80D4AE060E070E0C8010E9460
:100F800008150E94BA0A80E095E00E94C80D888189
:100F900099810E94BA0A83EF94E00E94C80D8A8169
:100FA0009B810E94BA0A8AEE94E00E94C80D8C814F
:100FB0009D810E94BA0A87EE94E00E94C80D0F5FDF
:100FC0001F4F0E80DF81C02D209789F6DF91CF91D2
:100FD0001F910F910895AF92BF92CF92DF92EF923F
:100FE000FF920F931F93CF93DF935C01FC018281EB
:100FF00093810E94FF1401960E9495138C01F501C4
:10100000628173810E94F814C8010E94FF147C0160
:10101000F694E794FAE0FE1518F489EC94E013C016
:10102000C091E303D091E40303C00E80DF81C02DA3
:101030002097C1F0B801888199810E94EF14892B13
:10104000A1F78CE994E00E94C80DC801DF91CF910F
:101050001F910F91FF90EF90DF90CF90BF90AF90D6
:101060000C942D1488E090E00E949513EC01892BDC
:1010700049F484E894E00E94C80D80E090E00E946A
:101080002D14E3CFF501848195810E94FF14019610
:101090000E9495136C01009719F483E694E04FC009
:1010A000F501648175810E94F814FF24C70101963F
:1010B0000E949513009719F482E494E040C04AE03E
:1010C000BC01C7010E940815198308839B838A838A
:1010D000DD82CC821F821E82E091E303F091E40363
:1010E000309739F4D093E403C093E3038EE194E0A6
:1010F0000AC086819781009711F0FC01FACFD7834F
:10110000C6838CEF93E00E94C80D86EF93E00E94A7
:10111000C80D888199810E94BA0A89EE93E00E94E5
:10112000C80D8A819B810E94BA0A80EE93E00E94DA
:10113000C80D8C819D810E94BA0A8DED93E0DF91EC
:10114000CF911F910F91FF90EF90DF90CF90BF90C4
:10115000AF900C94C80D1F920F920FB60F921124EE
:101160000F900FBE0F901F9018959CB590619CBD7D
:101170008EBD0DB407FEFDCF8EB5089528988E77ED
:1011800080680E94B50880E00E94B508289A0895FA
:10119000CF93C62F28988E770E94B5088C2F0E9477
:1011A000B508289ACF910895EF92FF920F931F935D
:1011B000CF93DF937C01C62F8A0160E082E00E941A
:1011C000C80864E08AE00E94C80884E10E94F40A2A
:1011D000B7018C2F0E94D40A63E082E00E94C80805
:1011E000C8E8D3E18AE00E94BE0882FD04C02197CE
:1011F000C9F784E00FC060E082E00E94C80884E480
:101200000E94BE08F801808382E40E94BE08F801B3
:10121000818381E0DF91CF911F910F91FF90EF903B
:101220000895CF93DF93C82FD62F809102016623B4
:1012300011F0806201C08F7D8093020180910201D4
:10124000C7FF02C0806101C08F7E80930201809140
:101250000201C6FF02C0886001C0877F809302013F
:10126000C5FF02C0739A01C07398C4FF02C0A59A5B
:1012700001C0A59800C00E94610482E08A95F1F740
:1012800000C00E94670480910201C3FF02C0806118
:1012900001C08F7E8093020180910201C2FF02C0D3
:1012A000886001C0877F80930201C1FF02C0739AEA
:1012B00001C07398C0FF02C0A59A01C0A59800C0E4
:1012C0000E94610492E09A95F1F700C00E946704C1
:1012D0008091020180618093020180910201886007
:1012E00080930201739AA59AD11108C0C43030F4DA
:1012F0008FE999E10197F1F700C003C095ED9A9548
:10130000F1F70000DF91CF910895CF93DF93FC01B7
:101310008491EF012196882329F061E00E94110950
:10132000FE01F6CFDF91CF91089560E00C94110992
:10133000CF93DF93E1E0F1E080818064808380815E
:1013400080628083808180618083808188608083E7
:101350006B9A9D9A0E946704C2E0D1E088818F7DDC
:101360008883888180618883888188608883739A74
:10137000A59A8FE59AEE0197F1F700C000008881E9
:101380008F7E88838881877F888300C00E94610464
:1013900092E09A95F1F700C00E9467048FE090E414
:1013A0000197F1F700C000000E94610492E09A9555
:1013B000F1F700C00E9467048FE891E00197F1F710
:1013C00000C000000E94610492E09A95F1F700C00D
:1013D0000E94670485ED8A95F1F70000A59800C08A
:1013E0000E94610492E09A95F1F700C00E946704A0
:1013F00085ED8A95F1F70000A59800C00E94610470
:1014000092E09A95F1F700C00E94670482E08A9505
:10141000F1F700C088818061888300C00E94610468
:1014200092E09A95F1F700C00E94670485ED8A95D5
:10143000F1F7000088E00E94950981E00E9495097B
:1014400086E00E9495098CE0DF91CF910C9495097C
:10145000EF92FF920F931F93CF93DF937C010E9433
:10146000C60A80EC0E949509CFE6D3E0F70102811D
:101470001381C8010E94FF14FE0165917491AC01B3
:10148000C8010E94BF14892B91F48CE693E00E945E
:10149000C80DFE01859194910E94C80DFE018591B1
:1014A00094910E94850961E080E20E9411092296D0
:1014B000F3E0C738DF07D1F689E693E0DF91CF91FB
:1014C0001F910F91FF90EF900C94C80D1F920F92F7
:1014D0000FB60F9211240BB60F922F933F934F9399
:1014E0005F936F937F938F939F93AF93BF93EF938C
:1014F000FF930E94D10F8091E9039091EA03A0919C
:10150000EB03B091EC030196A11DB11D8093E9039B
:101510009093EA03A093EB03B093EC03FF91EF9158
:10152000BF91AF919F918F917F916F915F914F91FB
:101530003F912F910F900BBE0F900FBE0F901F90F9
:1015400018952091710430E02F5F3F4F2F7733279C
:101550004091700450E024173507D1F3F901EA589F
:10156000FB4F8083209371048091C100806280933F
:10157000C1000895CF93DF93EC018991882319F07E
:101580000E94A10AFACFDF91CF910895CF93C0ECCA
:101590008C2F0E94950961E080E20E941109CF5FC3
:1015A000C03DB1F7CF910895FF920F931F93CF9352
:1015B000DF93182FF62E072F289882E10E94B50896
:1015C000CF2DD02FCE01810F911D8C01C017D107D7
:1015D00021F089910E94B508F9CF289ADF91CF9127
:1015E0001F910F91FF900895CF93C82F0E94BE08BE
:1015F000682F60688C2FCF910C94C8087F928F92CF
:101600009F92AF92BF92CF92DF92EF92FF920F9391
:101610001F93CF93DF935C01962E6A01E9010115B8
:10162000110519F0F801608101C060E0F62EF0E1CB
:10163000EF9EF00C112460E082E00E94C8086FE782
:1016400088E00E94C80884E10E94F40AB501892D4F
:101650000E94D40A6F2D8AE10E94C8086CE082E0E3
:101660000E94C8088AE10E94F40A90EDA92E97E032
:10167000B92E88E00E94BE08982F907339F480FD3F
:1016800068C081E0A81AB108A1F763C08CE00E948D
:10169000BE08782E837109F05EC0C114D10409F42C
:1016A00054C0209709F451C084E10E94BE0898817B
:1016B000981708F452C088838823F1F12898DFEF47
:1016C000D80F82E90E94B5085601F12C8824839432
:1016D000912CFD1640F5F1101CC0EE20D1F09E2D8E
:1016E000C0E0983048F49401092E01C0220F0A94FA
:1016F000EAF7C22B9F5FF5CF82E90E94B5082C2F35
:101700002095F601908192238C23C92FC82BC0838A
:1017100005C082E90E94B508F5018083F394FFEFCC
:10172000AF1ABF0AD6CFC6018D0F911DEC0180E024
:101730000E94B5088883289A88E10E94BE088770B5
:101740000115110511F0F801808373FC08C081E0D8
:1017500007C084E005C082E003C085E001C083E0EB
:10176000DF91CF911F910F91FF90EF90DF90CF907D
:10177000BF90AF909F908F907F9008952F923F924F
:101780004F925F926F927F928F929F92AF92BF9291
:10179000CF92DF92EF92FF920F931F93CF93DF933D
:1017A000CDB7DEB72B970FB6F894DEBF0FBECDBF17
:1017B0005C018CE10E94BE08682F6F778CE10E946B
:1017C000C808FF24F39488248394912C22E0F21615
:1017D00051F033E0F31661F081E0F812E0C083E9E4
:1017E0008983712C09C085E98983E3E07E2E04C0DA
:1017F00087E9898376E0772E612C49E0542E50E703
:10180000452E63E0362E90E269121CC04A829B810D
:101810008C8189279D8189279E8189278F83AE01AD
:10182000485F5F4F67E0CE0101960E94D408813087
:1018300009F0B9C01B863A86FE0137966F0129E090
:10184000222E1EC0962D97709B87862D8595859597
:1018500085958E5F292FF0E18F9F200D11242A831B
:1018600021E0911101C020E0222E280ECC24C39447
:10187000D12CCC0EDD1EC80ED11C252D281B2A878D
:10188000EB846E2D6295607F6E0D8AE10E94C80820
:101890008E01055F1F4F9E01265F3F4FA601622DFF
:1018A000CE0101960E94FE0A182F833089F58CE143
:1018B0000E94BE0885FD7AC08F7109F480E2282F4E
:1018C00030E0462D660C550B421753070CF067C0ED
:1018D000682EC9010197877099272595259525952B
:1018E00031E0320F21E0811101C020E0230FE1E05F
:1018F000F0E0EC0FFD1FE20FF11D940102C0220F7A
:10190000331F8A95E2F7C9019081892B80837BCFB1
:10191000813009F04BC030E2631619F030E2632EDB
:1019200075CF8B81883819F082E094E002C083E0A3
:1019300093E0E72DF0E03196EA0DFB1D980FA1E052
:10194000B0E0AC0FBD1FA80FB11D2C9121938F5F8C
:101950008913F5CF8A85833021F58B85811121C0CC
:10196000AE014D5F5F4F61E0C6010E94D408813037
:10197000D1F49B81F6018181981317C09C818281EB
:10198000981313C0808182FF02C0F3941FCFF5012A
:1019900083878F2D880FF80EF394F08207C016E02E
:1019A00005C012E003C0182F01C018E0812F2B964C
:1019B0000FB6F894DEBF0FBECDBFDF91CF911F9160
:1019C0000F91FF90EF90DF90CF90BF90AF909F90DE
:1019D0008F907F906F905F904F903F902F900895E1
:1019E0002091F7053091F8052115310521F420915A
:1019F0000402309105028091020290910302009747
:101A000041F48DB79EB74091060250910702841BA6
:101A1000950B2817390718F4821B930B089580E063
:101A200090E008952091F7053091F80521153105D2
:101A3000D9F08091040290910502281B390BE091A6
:101A4000F905F091FA058EEF9FEF309759F040813C
:101A50005181BC01641B750B260F371F0280F38177
:101A6000E02DF3CFC901089580E090E00895209122
:101A7000750430E02F5F3F4F2F7733274091740478
:101A800050E024173507D1F3F901E958FA4F808364
:101A9000209375048091C90080628093C9000895E5
:101AA000CF93DF93FC018491EF012196882321F0ED
:101AB0000E94370DFE01F7CFDF91CF9108951F925D
:101AC0000F920FB60F9211240BB60F928F939F9324
:101AD000EF93FF939091750480917404981779F0B7
:101AE0008091740490E001968F7799278093740415
:101AF000FC01E958FA4F80818093CE0005C08091A7
:101B0000C9008F7D8093C900FF91EF919F918F91C4
:101B10000F900BBE0F900FBE0F901F9018951F9245
:101B20000F920FB60F9211240BB60F922F933F9383
:101B30004F935F938F939F93EF93FF932091C800F0
:101B40003091CE0028718091730490E001968F77D8
:101B500099274091720450E08417950739F08093DB
:101B60007304FC01E950FB4F308301C022E0209355
:101B7000F604FF91EF919F918F915F914F913F916B
:101B80002F910F900BBE0F900FBE0F901F901895C6
:101B9000CF93DF93FC018491EF012196882321F0FC
:101BA0000E94A10AFE01F7CFDF91CF9108951F9205
:101BB0000F920FB60F9211240BB60F928F939F9333
:101BC000EF93FF939091710480917004981779F0CE
:101BD0008091700490E001968F779927809370042C
:101BE000FC01EA58FB4F80818093C60005C08091BC
:101BF000C1008F7D8093C100FF91EF919F918F91E4
:101C00000F900BBE0F900FBE0F901F9018951F9254
:101C10000F920FB60F9211240BB60F922F933F9392
:101C20004F935F938F939F93EF93FF932091C00007
:101C30003091C600287180916F0490E001968F77F3
:101C4000992740916E0450E08417950739F08093EE
:101C50006F04FC01E251FC4F308301C022E020936D
:101C6000ED03FF91EF919F918F915F914F913F9184
:101C70002F910F900BBE0F900FBE0F901F901895D5
:101C8000EF92FF920F931F93CF93DF93EC01FC0130
:101C9000E159FF4F0190F081E02D82E593E0199525
:101CA0007E0189E6E80EF11CF70120813181CE0129
:101CB00002968E0109591F4FF80140815181421B44
:101CC000530B4F5F5F4FBC01620F731F21503109EF
:101CD000820F931F0E94D614F70180819181019792
:101CE00091838083F80180819181C80FD91F1A8266
:101CF000019791838083DF91CF911F910F91FF9086
:101D0000EF900895EF92FF920F931F93CF93DF937D
:101D1000CDB7DEB760970FB6F894DEBF0FBECDBF6C
:101D20007C011F9281E08F931F9288E68F938AE552
:101D300093E09F938F931F9280E18F938E010F5FAB
:101D40001F4F1F930F930E945E15D701ED91FC91D9
:101D5000C80119950FB6F894DEBF0FBECDBF6096CF
:101D60000FB6F894DEBF0FBECDBFDF91CF911F91AC
:101D70000F91FF90EF900895EF92FF920F931F93B2
:101D8000CF93DF93CDB7DEB760970FB6F894DEBF81
:101D90000FBECDBF7C0180E18E010F5F1F4FD801C8
:101DA000E82F1D92EA95E9F7161617062CF47F9393
:101DB0006F932FE533E00AC061157105A1F07195AD
:101DC000619571097F936F9325E633E03F932F93DD
:101DD0001F928F931F930F930E945E150FB6F89476
:101DE000DEBF0FBECDBFD701ED91FC91C8011995A3
:101DF00060960FB6F894DEBF0FBECDBFDF91CF91D6
:101E00001F910F91FF90EF9008957F928F929F9274
:101E1000AF92BF92CF92DF92EF92FF920F931F93F8
:101E2000CF93DF931F921F92CDB7DEB76C018B016A
:101E30005A017C018FE6E80EF11CD701ED91FC916F
:101E40008EE493E0199519821A820C0D1D1D46012E
:101E5000B7E68B0E911C80E2782EF401208131814F
:101E6000C8018C199D098217930784F4F8018281B7
:101E7000882311F0898301C07982D701ED91FC910B
:101E8000CE01019619950F5F1F4FE7CFC7010E9442
:101E9000820EB501C7010E94BC0E0F900F90DF911A
:101EA000CF911F910F91FF90EF90DF90CF90BF9057
:101EB000AF909F908F907F900895AF92BF92CF92F6
:101EC000DF92EF920F931F93CF93DF931F921F9296
:101ED000CDB7DEB78A836115710529F1FA018081DA
:101EE000823008F16A015B018CE10E94BE08682F14
:101EF0006F778CE10E94C80887E08983E12C8E010E
:101F00000F5F1F4F9601A50161E0CE0102960E946E
:101F1000FE0A813059F4F6019081923031F49981B2
:101F2000911103C003C085E001C082E00F900F90C3
:101F3000DF91CF911F910F91EF90DF90CF90BF90E5
:101F4000AF900895CF93DF9300D0CDB7DEB782E096
:101F50008B83AE014D5F5F4FBE016F5F7F4F86E2A7
:101F60000E945D0F982F9D7F81E0913009F080E005
:101F70000F900F900F90DF91CF910895FC010FB655
:101F8000F8946091FB057091FC058091FD0590919E
:101F9000FE050FBE309721F06083718382839383A7
:101FA00008958F938FB78F93F8948091FB058F5F7F
:101FB0008093FB058091FC058F4F8093FC058091F9
:101FC000FD058F4F8093FD058091FE058F4F809317
:101FD000FE058F918FBF8F910895CF93DF93CDB77B
:101FE000DEB7AB970FB6F894DEBF0FBECDBF279A12
:101FF00085B1887F85B981B18A6281B982B1857DD9
:1020000082B9539AF894109271041092700410924D
:102010006F0410926E0478941092C50027E6209306
:10202000C40098E99093C10086E08093C200F894C0
:10203000109275041092740410927304109272043A
:1020400078941092CD002093CC009093C900809397
:10205000CA001092800010928100809181008860F7
:10206000809381008091810084608093810085E568
:1020700094EF909389008093880080916F00826034
:1020800080936F0078940E94980981E00E949509DE
:1020900045E650E060E070E08EE693E00E94E814D0
:1020A0001092D4031092D3031092D6031092D5034A
:1020B0001092D8031092D7031092DA031092D9032A
:1020C00084E393E090936D0380936C038AEB9AE032
:1020D0009093DC038093DB0384E393E00E94BA0ACD
:1020E0008EE894E09093D8038093D703209A289A9F
:1020F00080910A01816080930A0180910B018160C7
:1021000080930B010CB406FC06C0219A229A2398F6
:1021100081E58CBD1DBC80910B0180FD33C0809199
:102120000B01816080930B0184EF91E020E931E0A5
:10213000F9013197F1F70197D9F760E884E50E943A
:10214000C80869EA86E50E94C80863E088E50E943D
:10215000C80868EE8AE50E94C80860E48AE20E9426
:10216000C8086DE382E20E94C80888E20E94BE08A7
:10217000982F93709330E9F0682F636088E20E9493
:10218000C80817C06FE082E00E94C80884EF91E0A1
:1021900020E931E0F9013197F1F70197D9F708E823
:1021A00013E182E00E94BE0884FFC7CF01501109ED
:1021B000C1F787EF97E00E94500D87EC97E00E94EF
:1021C000500D0E94980980EC0E94950988E398E0E0
:1021D0000E948509CE0101967C01E2E02E2E312C71
:1021E000F7018BE011928A95E9F780E090E00E9478
:1021F000BE0F4B015C018091DF039091E003A09141
:10220000E103B091E20388169906AA06BB0619F10C
:102210002AE0A701C501B4010E9413158FE498E0DC
:102220000E94500D8701F80181918F01882319F0D8
:102230000E94370DF8CF89E498E00E94500D82B1DA
:10224000F0E28F2782B98092DF039092E003A092A0
:10225000E103B092E203F8948090E9039090EA03DE
:10226000A090EB03B090EC0378948091E5039091FB
:10227000E603A091E703B091E8030196A11DB11D0B
:1022800088159905AA05BB0508F04FC00E94A20F4A
:10229000882309F44AC08092E5039092E603A09255
:1022A000E703B092E803C7010E94BE0B698170E0AA
:1022B000CE0102960E9475066C010091E303109115
:1022C000E4030115110569F0B601F80180819181DF
:1022D0000E94EF14F801892B09F400C206811781CE
:1022E000F0CF0E94C60A80EC0E94950987E698E02C
:1022F0000E9485098091000290910102039729F0C4
:1023000030920102209200021FA2C6010E942D14E9
:10231000AE014F5E5F4FBE01655E7F4F82E50E945A
:102320005D0F88A699A6AAA6BBA688A599A5AAA569
:10233000BBA50596A11DB11D88159905AA05BB056C
:1023400048F40E94C60A80EC0E94950988E598E04E
:102350000E948509D301C2010396A11DB11D8815F4
:102360009905AA05BB0538F48FA1882321F0309286
:1023700001022092000280910002909101020E94CD
:102380006D04F89490916F0480916E04981304C0CA
:10239000789480E091E014C0789480916E0490E08D
:1023A00001968F77992780936E04FC01E251FC4FD0
:1023B00020818091ED0390E0982F8827820F911D56
:1023C00099279EA38DA38B30910509F4B8C0DCF446
:1023D0008530910509F4C3C04CF48130910509F4AE
:1023E000D1C08230910509F4F2C034C18830910522
:1023F00009F400C18A30910509F4F2CE86309105C6
:1024000009F4C9C027C18231910509F408C1E4F477
:102410008E30910509F4E4CE8031910509F4E0CEC7
:102420008D30910509F016C1E091DB03F091DC03DA
:1024300086E393E019954091D3035091D40320E0B3
:1024400030E0E0E0F0E014C08B31910509F4C8CE33
:102450008F37910509F4CEC08531910509F462C02A
:10246000F9C024173507CCF52F5F3F4FCF01FC0192
:10247000D901A459BC4F12968C91882391F324174B
:1024800035075CF5CF010196EE0FFF1FEE0DFF1D26
:10249000B90162597C4F718360838830910574F46F
:1024A000FB016191662331F042175307C9F02F5F9A
:1024B0003F4FF7CF24173507D4F212C0E091DB036A
:1024C000F091DC0388E393E01995E091DB03F09150
:1024D000DC0386E393E019950BC0309749F0CF01F8
:1024E000E091D703F091D803309711F0B701199517
:1024F000E091DB03F091DC0380916C0390916D031C
:1025000019951092D4031092D3031092D60310920F
:10251000D50345E650E060E070E08EE693E00E946F
:10252000E8145ECE4091D5035091D60314161506DB
:102530000CF08DC08CE693E00E94400EF3CFE0914A
:10254000DB03F091DC038EE493E019958091D503D1
:102550009091D6039093D4038093D30341CE60919E
:10256000D3037091D4038091D5039091D603681B57
:10257000790B8BED93E00E94BC0E8091D303909178
:10258000D40320C08BED93E00E94820E1092D603FC
:102590001092D50325CE2091D5033091D60380919A
:1025A000D3039091D403281739070CF019CE61E0BA
:1025B00070E08BED93E00E94BC0E8091D50390916A
:1025C000D60301969093D6038093D50309CE8091CC
:1025D000D5039091D603892B09F402CE6FEF7FEFDC
:1025E0008BED93E00E94BC0E8091D5039091D603B1
:1025F0000197E8CF8091D5039091D603181619065C
:1026000024F48CE693E00E94400E6091D503709113
:10261000D603AB018CE693E00E94050FE1CDE0917B
:10262000DB03F091DC0386E393E01995E091DB0393
:10263000F091DC0380916C0390916D0319958BED03
:1026400093E00E94820E4091D5035091D60360E042
:1026500070E0E0CF8032910539F48091D3039091FE
:10266000D403892B21F4BCCD80970CF4B9CD4091D3
:10267000D3035091D403443651050CF0B1CD809171
:10268000D5039091D603481B590BBC0162597C4F6E
:1026900081599C4F0E94D6146091D5037091D60346
:1026A0008DA1FB01E459FC4F803211F0828301C0FF
:1026B0001282AB014F5F5F4F5093D6034093D50317
:1026C0008091D3039091D40301969093D403809387
:1026D000D303FC01E459FC4F12829CCF8481958185
:1026E000009769F4892B59F08091000290910102C2
:1026F0000197B1F0109201021092000211C00E94E5
:10270000C60A80EC0E949509F80104811581F80140
:1027100081918F01882341F361E00E941109F7CF75
:1027200024013501F1E0FFA3F0CD0F931F93CF9368
:10273000DF938230910510F482E090E0E091F9059A
:10274000F091FA0520E030E0A0E0B0E0309719F118
:10275000408151810281138148175907C8F08417BD
:10276000950769F4109731F012960C93129713960F
:102770001C9327C00093F9051093FA0522C0211578
:10278000310519F04217530718F49A01BD01EF0102
:10279000DF01F801DBCF21153105F9F0281B390BDA
:1027A0002430310580F48A819B816115710521F007
:1027B000FB019383828304C09093FA058093F9050B
:1027C000FE01329644C0FE01E20FF31F8193919304
:1027D00022503109398328833AC02091F70530917E
:1027E000F805232B41F42091040230910502309327
:1027F000F8052093F705209102023091030221157C
:10280000310541F42DB73EB74091060250910702C1
:10281000241B350BE091F705F091F805E217F3075B
:10282000A0F42E1B3F0B2817390778F0AC014E5F40
:102830005F4F2417350748F04E0F5F1F5093F80580
:102840004093F7058193919302C0E0E0F0E0CF015F
:10285000DF91CF911F910F910895CF93DF93009750
:1028600009F481C0FC01329713821282A091F9050C
:10287000B091FA05109781F420813181820F931F66
:102880002091F7053091F8052817390751F5F09395
:10289000F805E093F70567C0ED0120E030E0CE17C2
:1028A000DF0740F44A815B819E0141155105F1F03B
:1028B000EA01F5CFD383C28340815181840F951FF4
:1028C000C817D90759F488819981840F951F0296FA
:1028D000918380838A819B81938382832115310533
:1028E00029F4F093FA05E093F9053DC0E901FB8373
:1028F000EA8349915991C40FD51FEC17FD0761F484
:1029000080819181840F951F0296E90199838883C4
:10291000828193819B838A83E0E0F0E012968D911F
:102920009C911397009719F0FD01DC01F7CF8D9171
:102930009C9111979D012E5F3F4F820F931F209115
:10294000F7053091F8052817390769F4309729F40D
:102950001092FA051092F90502C013821282B09308
:10296000F805A093F705DF91CF910895FB01DC01F5
:102970008D91059080190110D9F3990B0895FB01F1
:10298000DC014150504030F08D910590801919F4D0
:102990000020B9F7881B990B0895FB01DC0102C0E8
:1029A00001900D9241505040D8F70895681779076B
:1029B00068F4FB01DC01E40FF51FA40FB51F02C092
:1029C00002900E9241505040D8F708950C94CD14C7
:1029D000DC0101C06D9341505040E0F70895FB01C8
:1029E000DC018D91019080190110D9F3990B0895A4
:1029F000FB01DC0101900D920020E1F70895FC013C
:102A000001900020E9F7809590958E0F9F1F089503
:102A1000BB274A3031F4992322F4BDE29095819589
:102A20009F4F0C944515BB272A3051F4992342F44B
:102A3000BDE290958095709561957F4F8F4F9F4F28
:102A40000C942315BB27FA01A62F62177105810587
:102A50009105330B30FB66F0AA27660F771F881F9E
:102A6000991FAA1FA21710F0A21B63953850A9F74F
:102A7000A05DAA3308F0A95DA19336F7B111B19317
:102A80001082CA010C94EA17BB27FB015527AA271D
:102A9000880F991FAA1FA41710F0A41B83955051EB
:102AA000B9F7A05DAA3308F0A95DA193009779F763
:102AB000B111B1931192CB010C94EA170F931F93AC
:102AC000CF93DF93CDB7DEB72E970FB6F894DEBF66
:102AD0000FBECDBF0E891F89888D998D26E02C836E
:102AE0001A83098397FF02C080E090E801979E83D4
:102AF0008D83AE01445E5F4F6A8D7B8DCE01019662
:102B00000E94CA154D815E8157FD0AC02F8138850C
:102B1000421753070CF49A01F801E20FF31F1082D9
:102B20002E960FB6F894DEBF0FBECDBFDF91CF91CA
:102B30001F910F9108950F931F93CF93DF93CDB7FC
:102B4000DEB72E970FB6F894DEBF0FBECDBF0E894D
:102B50001F898EE08C831A8309838FEF9FE79E8302
:102B60008D83AE01465E5F4F688D798DCE010196F3
:102B70000E94CA15EF81F885E00FF11F10822E9692
:102B80000FB6F894DEBF0FBECDBFDF91CF911F917E
:102B90000F9108952F923F924F925F926F927F9282
:102BA0008F929F92AF92BF92CF92DF92EF92FF925D
:102BB0000F931F93CF93DF93CDB7DEB72B970FB64D
:102BC000F894DEBF0FBECDBF6C017B018A01FC0112
:102BD00017821682838181FFCCC1CE0101963C0110
:102BE000F6019381F70193FD859193FF81917F0118
:102BF000882309F4BAC1853239F493FD859193FF96
:102C000081917F01853229F4B60190E00E94FA1784
:102C1000E7CF912C212C312CFFE1F315D8F08B322A
:102C200079F038F4803279F08332A1F4232D2061D9
:102C30001DC08D3261F0803369F4232D216016C0F0
:102C4000832D8260382EE32DE4603E2E2AC0F32DC2
:102C5000F8601DC037FC2DC020ED280F2A3040F051
:102C60008E32B9F436FC81C1232D2064322E19C076
:102C700036FE06C08AE0989E200D1124922E11C0C7
:102C8000EAE02E9E200D1124222EF32DF0623F2E1D
:102C900008C08C3621F4832D8068382E02C0883617
:102CA00041F4F70193FD859193FF81917F0181119B
:102CB000B3CF982F9F7D9554933028F40C5F1F4F0E
:102CC0009FE399830DC0833631F0833771F08335EC
:102CD00009F059C021C0F801808189830E5F1F4F20
:102CE00088248394912C530113C02801F2E04F0EE5
:102CF000511CF801A080B18036FE03C0692D70E040
:102D000002C06FEF7FEFC5010E94DF174C01820107
:102D1000F32DFF773F2E16C0280122E0420E511CF2
:102D2000F801A080B18036FE03C0692D70E002C0BA
:102D30006FEF7FEFC5010E94D4174C01F32DF068AF
:102D40003F2E820133FC1BC0822D90E0881699062D
:102D5000B0F4B60180E290E00E94FA172A94F4CF12
:102D6000F50137FC859137FE81915F01B60190E056
:102D70000E94FA1721102A9421E0821A91088114E6
:102D8000910471F7E8C0843611F0893641F5F801F5
:102D900037FE07C060817181828193810C5F1F4F74
:102DA00008C060817181072E000C880B990B0E5FA3
:102DB0001F4FF32DFF763F2E97FF09C0909580950A
:102DC000709561957F4F8F4F9F4FF0683F2E2AE09F
:102DD00030E0A3010E943618882E861845C085373A
:102DE00031F4232D2F7EB22E2AE030E025C0932D22
:102DF000997FB92E8F36C1F018F4883579F0B5C0B7
:102E0000803719F0883721F0B0C0E92FE061BE2E7D
:102E1000B4FE0DC0FB2DF460BF2E09C034FE0AC005
:102E2000292F2660B22E06C028E030E005C020E140
:102E300030E002C020E132E0F801B7FE07C0608157
:102E40007181828193810C5F1F4F06C06081718107
:102E500080E090E00E5F1F4FA3010E943618882E7D
:102E60008618FB2DFF773F2E36FE0DC0232D2E7FBB
:102E7000A22E891458F434FE0BC032FC09C0832DF5
:102E80008E7EA82E05C0B82CA32C03C0B82C01C080
:102E9000B92CA4FE0FC0FE01E80DF11D8081803326
:102EA00021F49A2D997EA92E09C0A2FE06C0B394E2
:102EB000B39404C08A2D867809F0B394A3FC11C0A2
:102EC000A0FE06C0B21488F4280C922C9B180EC0E9
:102ED000B21460F4B60180E290E00E94FA17B39455
:102EE000F7CFB21418F42B1802C0982C212CA4FE92
:102EF00010C0B60180E390E00E94FA17A2FE17C04E
:102F0000A1FC03C088E790E002C088E590E0B6012C
:102F10000CC08A2D867859F0A1FE02C08BE201C058
:102F200080E2A7FC8DE2B60190E00E94FA178914B6
:102F300038F4B60180E390E00E94FA179A94F7CF34
:102F40008A94F301E80DF11D8081B60190E00E94A2
:102F5000FA178110F5CF222009F442CEB60180E2A3
:102F600090E00E94FA172A94F6CFF60186819781A5
:102F700002C08FEF9FEF2B960FB6F894DEBF0FBE07
:102F8000CDBFDF91CF911F910F91FF90EF90DF9018
:102F9000CF90BF90AF909F908F907F906F905F90F9
:102FA0004F903F902F900895FC0105906150704024
:102FB0000110D8F7809590958E0F9F1F0895FC0102
:102FC0006150704001900110D8F7809590958E0F58
:102FD0009F1F0895DC01FC01672F71917723E1F7B2
:102FE000329704C07C916D9370836291AE17BF07D6
:102FF000C8F308950F931F93CF93DF93FB012381B1
:1030000021FD03C08FEF9FEF2CC022FF16C0468129
:103010005781248135814217530744F4A081B1813F
:103020009D012F5F3F4F318320838C932681378111
:103030002F5F3F4F3783268314C08B01EC01FB01C8
:103040000084F185E02D1995892BE1F6D8011696BB
:103050008D919C911797019617969C938E93169736
:10306000CE01DF91CF911F910F910895FA01AA2708
:10307000283051F1203181F1E8946F936E7F6E5FBB
:103080007F4F8F4F9F4FAF4FB1E03ED0B4E03CD069
:10309000670F781F891F9A1FA11D680F791F8A1F4C
:1030A000911DA11D6A0F711D811D911DA11D20D0B3
:1030B00009F468943F912AE0269F11243019305D6D
:1030C0003193DEF6CF010895462F4770405D41935E
:1030D000B3E00FD0C9F7F6CF462F4F70405D4A33AB
:1030E00018F0495D31FD4052419302D0A9F7EACF73
:1030F000B4E0A6959795879577956795BA95C9F7A2
:1031000000976105710508959B01AC010A2E069494
:103110005795479537952795BA95C9F7620F731F4D
:0C312000841F951FA01D0895F894FFCF98
:10312C0003000000FF0520002E032503F104001D01
:10313C00030C03E904000403B002290503A9029C53
:10314C000211050096025A02280A0155024B02A3ED
:10315C00060047022302EB07021E020B02A3070024
:10316C000402E0013B0701DC01A4014805005049C1
:10317C00434320636F6D706C69616E742077697462
:10318C00682049534F2F4945432031343434332D73
:10319C0034005049434320636F6D706C69616E74E9
:1031AC0020776974682049534F2F494543203138A3
:1031BC0030393220284E464329004D49464152456C
:1031CC00204D696E692C203332302062797465731E
:1031DC00004D494641524520314B42004D49464134
:1031EC00524520344B42004D494641524520556CC6
:1031FC007472616C69676874206F7220556C74729C
:10320C00616C696768742043004D49464152452002
:10321C00506C7573004D494641524520544E503305
:10322C005858580053414B20696E6469636174654A
:10323C007320554944206973206E6F7420636F6D41
:10324C00706C6574652E00556E6B6E6F776E2074A6
:10325C007970650024000D004552524F523A746F3C
:10326C006F206D616E7920746F6B656E73001B5BE4
:10327C004B001B5B44201B5B44001B5B2564441B05
:0C328C005B256443001B5B2564440000CC
:00000001FF
